:020000040800F2
:100000000000032001120008991100089B1100084C
:100010009D1100089F110008A111000800000000B8
:10002000000000000000000000000000A311000814
:10003000A511000800000000A7110008A911000880
:100040005112000851120008511200085112000804
:1000500051120008511200085112000851120008F4
:1000600051120008511200085112000851120008E4
:1000700051120008511200085112000851120008D4
:1000800051120008511200085112000851120008C4
:1000900051120008511200085112000851120008B4
:1000A00051120008511200085112000851120008A4
:1000B0005112000851120008511200085112000894
:1000C0005112000851120008511200085112000884
:1000D0005112000851120008511200085112000874
:1000E0005112000851120008511200085112000864
:1000F0005112000851120008511200085112000854
:100100005112000851120008511200085112000843
:100110005112000851120008511200085112000833
:100120005112000851120008511200085112000823
:100130005112000851120008511200085112000813
:100140005112000851120008511200085112000803
:1001500051120008511200085112000851120008F3
:1001600051120008511200085112000851120008E3
:10017000511200085112000851120008000000003E
:1001800051120008511200085112000851120008C3
:1001900051120008511200085112000851120008B3
:0C01A00051120008511200085112000812
:1001AC0010B5054C237833B9044B13B10448AFF3A5
:1001BC0000800123237010BD0C0000200000000003
:1001CC009C12000808B5034B1BB103490348AFF35D
:1001DC00008008BD00000000100000209C120008E8
:1001EC0053B94AB9002908BF00281CBF4FF0FF3192
:1001FC004FF0FF3000F072B9ADF1080C6DE904CE90
:10020C0000F006F8DDF804E0DDE9022304B07047E5
:10021C002DE9F047089E04468846002B4BD18A42B4
:10022C00154667D9B2FA82F24AB1C2F1200701FA37
:10023C0002F320FA07F7954047EA030894404FEA87
:10024C00154E230CB8FBFEF71FFA85FC0EFB178826
:10025C0043EA084307FB0CF1994209D9EB1807F163
:10026C00FF3080F01B81994240F21881023F2B44F1
:10027C005B1AA4B2B3FBFEF00EFB103344EA03444A
:10028C0000FB0CFCA44509D92C1900F1FF3380F0BC
:10029C000781A44540F2048102382C4440EA07400F
:1002AC00A4EB0C0400271EB1D4400023C6E9004384
:1002BC003946BDE8F0878B4209D9002E00F0EB805F
:1002CC000027C6E9000138463946BDE8F087B3FA85
:1002DC0083F7002F47D18B4202D3824200F2FA807F
:1002EC00841A61EB030301209846002EE0D0C6E986
:1002FC000048DDE702B9FFDEB2FA82F2002A40F0D4
:10030C008F80491B4FEA154E1FFA85F80127B1FB68
:10031C00FEFC230C0EFB1C1143EA014308FB0CF101
:10032C00994207D9EB180CF1FF3002D2994200F236
:10033C00CD808446591AA3B2B1FBFEF00EFB10140B
:10034C0043EA044408FB00F8A04507D92C1900F136
:10035C00FF3302D2A04500F2B6801846A4EB080485
:10036C0040EA0C409FE7C7F1200CBB4022FA0CFE80
:10037C004EEA030E01FA07F420FA0CF521FA0CF3FD
:10038C004FEA1E482543B3FBF8F92C0C08FB193334
:10039C001FFA8EFA44EA034309FB0AF49C4202FA60
:1003AC0007F200FA07F10BD91EEB030309F1FF303A
:1003BC0080F087809C4240F28480A9F1020973444A
:1003CC001B1BADB2B3FBF8F008FB103345EA03443A
:1003DC0000FB0AFAA24508D91EEB040400F1FF3316
:1003EC006BD2A24569D90238744440EA0940A0FB9B
:1003FC000289A4EB0A044C45C2464B4654D351D057
:10040C00002E69D0B1EB0A0564EB030404FA0CFC72
:10041C00FD40FC404CEA0505C6E90054002747E7BF
:10042C00C2F1200320FA03F7954001FA02F021FAF9
:10043C0003F34FEA154E3843010CB3FBFEF71FFADA
:10044C0085F80EFB173341EA034107FB08F38B4297
:10045C0004FA02F407D9691807F1FF3C2FD28B423A
:10046C002DD9023F2944CB1A81B2B3FBFEF00EFB0F
:10047C00103341EA034100FB08F38B4207D969189A
:10048C0000F1FF3C17D28B4215D902382944C91A06
:10049C0040EA07473BE73746304609E70746E7E6B9
:1004AC001846FBE64145ABD2B8EB020A69EB0E02EB
:1004BC0001381346A4E76046E9E7184695E7674616
:1004CC00D1E781467CE702382C4447E7ACF1020CBB
:1004DC002B442FE7384608E73746E9E6704700BF5C
:1004EC0010B504460E4B18784FF47A73B3FBF0F347
:1004FC000C4A1068B0FBF3F000F086F868B90F2CCA
:10050C0001D9012010BD002221464FF0FF3000F030
:10051C0049F8034B5C60002010BD012010BD00BFEA
:10052C00000000200800002008B50B4B1A6842F4AC
:10053C0000721A601A6842F480621A601A6842F4F7
:10054C0080721A60032000F01BF80020FFF7C8FF30
:10055C0000F0D2FD002008BD003C0240034A1168A7
:10056C00034B1B780B441360704700BF280000201E
:10057C0000000020014B1868704700BF28000020C5
:10058C00074AD36823F4E0631B041B0C000200F43D
:10059C00E060184340F0BF6040F40030D06070471A
:1005AC0000ED00E030B4164BDB68C3F30223C3F15B
:1005BC000704042C28BF04241D1D062D17D9033B4A
:1005CC00012505FA04F4013C2140994005FA03F396
:1005DC00013B1340194300280BDB0901C9B200F1A0
:1005EC00604000F5614080F8001330BC7047002378
:1005FC00E6E700F00F000901C9B2024B1954F4E709
:10060C0000ED00E014ED00E00138B0F1807F0AD27B
:10061C00064B5860F021064A82F82310002098609F
:10062C0007221A6070470120704700BF10E000E0FD
:10063C0000ED00E0042805D0054A136823F00403FC
:10064C0013607047024A136843F004031360704749
:10065C0010E000E0704708B5FFF7FCFF08BD000094
:10066C00F0B583B000244BE04FEAD40E0EF1080E27
:10067C0050F82E2004F00706B6000F27B74022EAE8
:10068C0007020F6907FA06F6324340F82E2046E0BF
:10069C00092600E0002606FA0EF632430233644EB9
:1006AC0046F82320634B1A68EB4302EA03064F68B3
:1006BC0017F4803F01D045EA02065E4A1660526884
:1006CC0003EA02064F6817F4003F01D045EA020620
:1006DC00584A5660926803EA02064F6817F4801F66
:1006EC0001D045EA0206534A9660D26813404E6820
:1006FC0016F4001F01D045EA02034E4AD3600134C0
:10070C000F2C00F292800123A3400A6803EA020531
:10071C00AB42F4D14A68022AA6D0122AA4D00668A9
:10072C004FEA440E032202FA0EF2D24316404F68EF
:10073C0007F0030707FA0EF73E4306604E68771E74
:10074C00012F03D9112E01D0122E0FD1866816401D
:10075C00CF6807FA0EF73E438660466826EA030325
:10076C004E68C6F30016A64033434360C3681A4074
:10077C008B6803FA0EF31A43C2604B6813F0805F68
:10078C00BDD0002301932C4B5A6C42F480425A6426
:10079C005B6C03F480430193019BA3089E1C244AC9
:1007AC0052F8262004F003064FEA860E0F2606FAAE
:1007BC000EF622EA0602214FB8423FF46BAF204EF0
:1007CC00B04222D006F58066B04220D006F5806695
:1007DC00B0421ED006F58066B0421CD006F580668D
:1007EC00B0421AD006F58066B04218D006F5806685
:1007FC00B04216D006F58066B04214D006F580667D
:10080C00B0423FF445AF0A2645E7012643E70226EE
:10081C0041E703263FE704263DE705263BE706268E
:10082C0039E7072637E7082635E703B0F0BD00BFE8
:10083C0000380140003C01400038024000000240FA
:10084C000004024012B9090481617047816170474C
:10085C00436959404161704710B582B00023019340
:10086C00194B1A6C42F080521A641B6C03F08053C3
:10087C000193019B0122154B1A60FFF77BFE044686
:10088C00134B5B6813F4803F08D1FFF773FE001B1A
:10089C00B0F57A7FF4D9032002B010BD01220D4BC4
:1008AC001A60FFF767FE0446094B5B6813F4003FC0
:1008BC0007D1FFF75FFE001BB0F57A7FF4D9032058
:1008CC00EAE70020E8E700BF0038024040000E4293
:1008DC000070004044000E42002800F0BB8170B54F
:1008EC0082B00446036813F0010F3BD0A74B9B6802
:1008FC0003F00C03042B2CD0A44B9B6803F00C03CB
:10090C00082B21D06368B3F5803F4FD0B3F5A02FEF
:10091C0052D09E4B1A6822F480321A601A6822F464
:10092C0080221A606368002B50D0FFF723FE054627
:10093C00964B1B6813F4003F14D1FFF71BFE401BB2
:10094C006428F5D903208AE1904B5B6813F4800F7F
:10095C00D8D08E4B1B6813F4003F03D06368002B78
:10096C0000F07A81236813F0020F55D0874B9B68F7
:10097C0013F00C0F3ED0854B9B6803F00C03082B37
:10098C0033D0E368002B68D00122814B1A60FFF74B
:10099C00F1FD05467D4B1B6813F0020F54D1FFF798
:1009AC00E9FD401B0228F5D9032058E1774A13686A
:1009BC0043F480331360B5E7744B1A6842F4802219
:1009CC001A601A6842F480321A60ABE7FFF7D2FD66
:1009DC0005466E4B1B6813F4003FC3D0FFF7CAFDEE
:1009EC00401B6428F5D9032039E1684B5B6813F48C
:1009FC00800FC6D1654B1B6813F0020F04D0E3685F
:100A0C00012B01D001202AE1604A136823F0F8037E
:100A1C00216943EAC1031360236813F0080F40D027
:100A2C00636963B301225B4B1A60FFF7A3FD0546B4
:100A3C00564B5B6F13F0020F33D1FFF79BFD401B3E
:100A4C000228F5D903200AE1504A136823F0F80371
:100A5C00216943EAC1031360DEE700224C4B1A60A4
:100A6C00FFF788FD0546494B1B6813F0020FD3D0E6
:100A7C00FFF780FD401B0228F5D90320EFE0002290
:100A8C00444B1A60FFF776FD0546404B5B6F13F045
:100A9C00020F06D0FFF76EFD401B0228F5D903208C
:100AAC00DDE0236813F0040F79D0384B1B6C13F086
:100ABC00805F33D100230193344B1A6C42F0805287
:100ACC001A641B6C03F080530193019B0125324B7C
:100ADC001B6813F4807F23D0A368012B34D0052B23
:100AEC0038D02A4B1A6F22F001021A671A6F22F0C3
:100AFC0004021A67A368002B36D0FFF73BFD0646AD
:100B0C00224B1B6F13F0020F48D1FFF733FD801BF4
:100B1C0041F288339842F3D90320A0E00025D6E7B0
:100B2C001D4A136843F480731360FFF723FD0646D8
:100B3C00194B1B6813F4807FCED1FFF71BFD801B74
:100B4C000228F5D903208AE0104A136F43F0010301
:100B5C001367CFE70D4B1A6F42F004021A671A6F36
:100B6C0042F001021A67C5E7FFF704FD0646074B82
:100B7C001B6F13F0020F11D0FFF7FCFC801B41F22E
:100B8C0088339842F3D9032069E000BF0038024053
:100B9C0000004742800E474200700040E5B9A3694F
:100BAC00002B5BD0304A926802F00C02082A58D015
:100BBC00022B17D000222D4B1A60FFF7DBFC0446EA
:100BCC00294B1B6813F0007F42D0FFF7D3FC001BAE
:100BDC000228F5D9032042E0234A136C23F08053FA
:100BEC001364DCE70022214B1A60FFF7C3FC0546B7
:100BFC001D4B1B6813F0007F06D0FFF7BBFC401B9E
:100C0C000228F5D903202AE0E369226A1343626AB9
:100C1C0043EA8213A26A5208013A43EA0243E26AA7
:100C2C0043EA0263104A53600122104B1A60FFF72B
:100C3C00A1FC04460C4B1B6813F0007F06D1FFF798
:100C4C0099FC001B0228F5D9032008E0002006E0DF
:100C5C00002004E001207047012000E0002002B0D9
:100C6C0070BD0120FBE700BF003802406000474226
:100C7C00F8B5314B9B6803F00C03042B59D0082BAF
:100C8C0001D02E48F8BD2C4B5A6802F03F025B682D
:100C9C0013F4800F2AD0284B5B68C3F388131E46CD
:100CAC0000275C010025E41A65EB0705A90141EA60
:100CBC009461A001001B61EB0501CB0043EA50736A
:100CCC00C400A01943EB07014B0243EAD053440282
:100CDC00204619460023FFF783FA174B5B68C3F3D2
:100CEC00014301335B00B0FBF3F0F8BD124B5B68C2
:100CFC00C3F388131E4600275C010025E41A65EB3C
:100D0C000705A90141EA9461A001001B61EB0501F3
:100D1C00CB0043EA5073C400A01943EB07018B02CC
:100D2C0043EA90538402204619460023FFF758FAF1
:100D3C00D3E70348F8BD00BF003802400024F4009C
:100D4C0000127A00002800F09D8070B504464F4BCD
:100D5C001B6803F00F038B4209D2CBB24B4A1370C2
:100D6C00136803F00F03994201D0012070BD236872
:100D7C0013F0020F17D013F0040F04D0444A9368F9
:100D8C0043F4E0539360236813F0080F04D0404AF7
:100D9C00936843F4604393603D4A936823F0F003F7
:100DAC00A068034393600D46236813F0010F32D003
:100DBC006368012B21D09A1E012A25D9344A126866
:100DCC0012F0020F60D032498A6822F003021343FA
:100DDC008B60FFF7CFFB06462D4B9B6803F00C0393
:100DEC006268B3EB820F16D0FFF7C4FB801B41F295
:100DFC0088339842F0D9032070BD254A126812F44A
:100E0C00003FE0D1012070BD214A126812F0007F32
:100E1C00D9D1012070BD1D4B1B6803F00F039D42FF
:100E2C0009D2EAB2194B1A701B6803F00F039D42EA
:100E3C0001D0012070BD236813F0040F06D0144AB2
:100E4C00936823F4E053E1680B439360236813F039
:100E5C00080F07D00E4A936823F46043216943EAD4
:100E6C00C1039360FFF704FF094B9B68C3F30313A3
:100E7C00084AD35CD840084B18600020FFF730FBC1
:100E8C00002070BD01207047012070BD003C024065
:100E9C0000380240B412000808000020014B18680A
:100EAC00704700BF0800002080694B1E13F001033F
:100EBC0000D00823022900DD0430043302FA03F3C6
:100ECC000360704770B505460C461E46FFF7ECFFF5
:100EDC0005F1340204F18043013B049942F82310DC
:100EEC002B6A013CA4006FF00202A24013402B625B
:100EFC002A6A013406FA04F414432C6270BD000013
:100F0C0030B589B000240094184B1A6B42F0800263
:100F1C001A631A6B02F080020092009A01941A6B09
:100F2C0042F001021A631A6B02F001020192019A5B
:100F3C0002941A6B42F040021A631B6B03F04003DD
:100F4C000293029B0A4D22464FF4C0412846FFF7FC
:100F5C0079FC4FF4C0430393012304930594069446
:100F6C0003A92846FFF77CFB09B030BD00380240CE
:100F7C0000180240FEE7000000B595B00021019179
:100F8C002E4B1A6C42F080521A641B6C03F0805387
:100F9C000193019B02912A4B1A6842F440421A6059
:100FAC001B6803F440430293029B012308934FF404
:100FBC008033099302220E924FF480030F93042383
:100FCC001093B42111911292139308A8FFF784FC8B
:100FDC0038BBFFF741FC40BB0F2303930223049360
:100FEC00002305934FF4A05306934FF480530793BB
:100FFC00052103A8FFF7A6FED8B9FFF74FFF114B49
:10100C00A3FB00308009FFF7FFFA0420FFF712FB67
:10101C00002211464FF0FF30FFF7C4FA15B05DF80F
:10102C0004FBCA210848FFF7A5FFD1210648FFF7AA
:10103C00A1FFDF210448FFF79DFF00BF00380240ED
:10104C0000700040D34D6210CC12000800B583B084
:10105C00FFF76AFAFFF790FFFFF752FF244B1A6C69
:10106C0042F001021A641A6A42F001021A621A6A08
:10107C0022F001021A624FF080444FF40043E36205
:10108C0040F6BB23A3620023636242F6AA220092BD
:10109C00102203212046FFF715FF236843F00103BC
:1010AC002360236A43F48073236205E04FF080438E
:1010BC001B6913F0080F10D14FF080431B6913F01C
:1010CC00010FF3D04FF080436FF001021A614FF41F
:1010DC0080410848FFF7BCFBE8E74FF080436FF016
:1010EC0008021A614FF400510248FFF7B1FBE3E725
:1010FC00003802400018024010B582B00024009461
:10110C00214B5A6C42F480425A645A6C02F480426D
:10111C000092009A01941A6C42F080521A641B6C73
:10112C0003F080530193019B0320FFF729FA224619
:10113C0021466FF00B00FFF735FA224621466FF07F
:10114C000A00FFF72FFA224621466FF00900FFF73D
:10115C0029FA224621466FF00400FFF723FA2246B3
:10116C0021466FF00300FFF71DFA224621466FF06F
:10117C000100FFF717FA224621464FF0FF30FFF728
:10118C0011FA02B010BD00BF003802407047FEE7F4
:10119C00FEE7FEE7FEE770477047704708B5FFF7BC
:1011AC00DDF9FFF758FA08BD0F49D1F8883043F440
:1011BC007003C1F888300D4B1A6842F001021A60B6
:1011CC00002098601A6822F0847222F480321A602F
:1011DC00074A5A601A6822F480221A60D8604FF0CD
:1011EC0000638B60704700BF00ED00E000380240E8
:1011FC0010300024DFF834D0002103E00C4B5B5896
:10120C00435004310B480C4B42189A42F6D30B4A0C
:10121C0002E0002342F8043B094B9A42F9D3FFF752
:10122C00C3FF00F011F8FFF711FF70470000032017
:10123C00EC120008000000200C0000200C00002024
:10124C002C000020FEE7000070B50D4E0D4CA41BC9
:10125C00A4100025A54209D10B4E0C4C00F018F837
:10126C00A41BA4100025A54205D170BD56F825304D
:10127C0098470135EEE756F8253098470135F2E7E7
:10128C00E4120008E4120008E4120008E812000856
:10129C00F8B500BFF8BC08BC9E467047F8B500BF57
:0812AC00F8BC08BC9E46704727
:1012B4000000000000000000010203040607080902
:1012C40000000000010203042E2E2F5372632F6DC1
:0812D40061696E2E6300000049
:0812DC0040EFFF7F010000005C
:0412E400D10100082C
:0412E800AD0100084C
:0C12EC0001000000100000000024F400CD
:0400000508001201DC
:00000001FF
